{
  "_format": "hh-sol-artifact-1",
  "contractName": "Flamboyant",
  "sourceName": "contracts/Flamboyant.sol",
  "abi": [
    {
      "inputs": [],
      "stateMutability": "nonpayable",
      "type": "constructor"
    },
    {
      "inputs": [
        {
          "internalType": "address",
          "name": "sender",
          "type": "address"
        },
        {
          "internalType": "uint256",
          "name": "tokenId",
          "type": "uint256"
        },
        {
          "internalType": "address",
          "name": "owner",
          "type": "address"
        }
      ],
      "name": "ERC721IncorrectOwner",
      "type": "error"
    },
    {
      "inputs": [
        {
          "internalType": "address",
          "name": "operator",
          "type": "address"
        },
        {
          "internalType": "uint256",
          "name": "tokenId",
          "type": "uint256"
        }
      ],
      "name": "ERC721InsufficientApproval",
      "type": "error"
    },
    {
      "inputs": [
        {
          "internalType": "address",
          "name": "approver",
          "type": "address"
        }
      ],
      "name": "ERC721InvalidApprover",
      "type": "error"
    },
    {
      "inputs": [
        {
          "internalType": "address",
          "name": "operator",
          "type": "address"
        }
      ],
      "name": "ERC721InvalidOperator",
      "type": "error"
    },
    {
      "inputs": [
        {
          "internalType": "address",
          "name": "owner",
          "type": "address"
        }
      ],
      "name": "ERC721InvalidOwner",
      "type": "error"
    },
    {
      "inputs": [
        {
          "internalType": "address",
          "name": "receiver",
          "type": "address"
        }
      ],
      "name": "ERC721InvalidReceiver",
      "type": "error"
    },
    {
      "inputs": [
        {
          "internalType": "address",
          "name": "sender",
          "type": "address"
        }
      ],
      "name": "ERC721InvalidSender",
      "type": "error"
    },
    {
      "inputs": [
        {
          "internalType": "uint256",
          "name": "tokenId",
          "type": "uint256"
        }
      ],
      "name": "ERC721NonexistentToken",
      "type": "error"
    },
    {
      "anonymous": false,
      "inputs": [
        {
          "indexed": true,
          "internalType": "address",
          "name": "owner",
          "type": "address"
        },
        {
          "indexed": true,
          "internalType": "address",
          "name": "approved",
          "type": "address"
        },
        {
          "indexed": true,
          "internalType": "uint256",
          "name": "tokenId",
          "type": "uint256"
        }
      ],
      "name": "Approval",
      "type": "event"
    },
    {
      "anonymous": false,
      "inputs": [
        {
          "indexed": true,
          "internalType": "address",
          "name": "owner",
          "type": "address"
        },
        {
          "indexed": true,
          "internalType": "address",
          "name": "operator",
          "type": "address"
        },
        {
          "indexed": false,
          "internalType": "bool",
          "name": "approved",
          "type": "bool"
        }
      ],
      "name": "ApprovalForAll",
      "type": "event"
    },
    {
      "anonymous": false,
      "inputs": [
        {
          "indexed": true,
          "internalType": "address",
          "name": "from",
          "type": "address"
        },
        {
          "indexed": true,
          "internalType": "address",
          "name": "to",
          "type": "address"
        },
        {
          "indexed": true,
          "internalType": "uint256",
          "name": "tokenId",
          "type": "uint256"
        }
      ],
      "name": "Transfer",
      "type": "event"
    },
    {
      "inputs": [
        {
          "internalType": "address",
          "name": "to",
          "type": "address"
        },
        {
          "internalType": "uint256",
          "name": "tokenId",
          "type": "uint256"
        }
      ],
      "name": "approve",
      "outputs": [],
      "stateMutability": "nonpayable",
      "type": "function"
    },
    {
      "inputs": [
        {
          "internalType": "address",
          "name": "owner",
          "type": "address"
        }
      ],
      "name": "balanceOf",
      "outputs": [
        {
          "internalType": "uint256",
          "name": "",
          "type": "uint256"
        }
      ],
      "stateMutability": "view",
      "type": "function"
    },
    {
      "inputs": [
        {
          "internalType": "uint256",
          "name": "tokenId",
          "type": "uint256"
        }
      ],
      "name": "getApproved",
      "outputs": [
        {
          "internalType": "address",
          "name": "",
          "type": "address"
        }
      ],
      "stateMutability": "view",
      "type": "function"
    },
    {
      "inputs": [
        {
          "internalType": "address",
          "name": "owner",
          "type": "address"
        },
        {
          "internalType": "address",
          "name": "operator",
          "type": "address"
        }
      ],
      "name": "isApprovedForAll",
      "outputs": [
        {
          "internalType": "bool",
          "name": "",
          "type": "bool"
        }
      ],
      "stateMutability": "view",
      "type": "function"
    },
    {
      "inputs": [],
      "name": "name",
      "outputs": [
        {
          "internalType": "string",
          "name": "",
          "type": "string"
        }
      ],
      "stateMutability": "view",
      "type": "function"
    },
    {
      "inputs": [
        {
          "internalType": "uint256",
          "name": "tokenId",
          "type": "uint256"
        }
      ],
      "name": "ownerOf",
      "outputs": [
        {
          "internalType": "address",
          "name": "",
          "type": "address"
        }
      ],
      "stateMutability": "view",
      "type": "function"
    },
    {
      "inputs": [
        {
          "internalType": "string",
          "name": "userName",
          "type": "string"
        }
      ],
      "name": "safeMint",
      "outputs": [
        {
          "internalType": "uint256",
          "name": "",
          "type": "uint256"
        }
      ],
      "stateMutability": "nonpayable",
      "type": "function"
    },
    {
      "inputs": [
        {
          "internalType": "address",
          "name": "from",
          "type": "address"
        },
        {
          "internalType": "address",
          "name": "to",
          "type": "address"
        },
        {
          "internalType": "uint256",
          "name": "tokenId",
          "type": "uint256"
        }
      ],
      "name": "safeTransferFrom",
      "outputs": [],
      "stateMutability": "nonpayable",
      "type": "function"
    },
    {
      "inputs": [
        {
          "internalType": "address",
          "name": "from",
          "type": "address"
        },
        {
          "internalType": "address",
          "name": "to",
          "type": "address"
        },
        {
          "internalType": "uint256",
          "name": "tokenId",
          "type": "uint256"
        },
        {
          "internalType": "bytes",
          "name": "data",
          "type": "bytes"
        }
      ],
      "name": "safeTransferFrom",
      "outputs": [],
      "stateMutability": "nonpayable",
      "type": "function"
    },
    {
      "inputs": [
        {
          "internalType": "address",
          "name": "operator",
          "type": "address"
        },
        {
          "internalType": "bool",
          "name": "approved",
          "type": "bool"
        }
      ],
      "name": "setApprovalForAll",
      "outputs": [],
      "stateMutability": "nonpayable",
      "type": "function"
    },
    {
      "inputs": [
        {
          "internalType": "bytes4",
          "name": "interfaceId",
          "type": "bytes4"
        }
      ],
      "name": "supportsInterface",
      "outputs": [
        {
          "internalType": "bool",
          "name": "",
          "type": "bool"
        }
      ],
      "stateMutability": "view",
      "type": "function"
    },
    {
      "inputs": [],
      "name": "symbol",
      "outputs": [
        {
          "internalType": "string",
          "name": "",
          "type": "string"
        }
      ],
      "stateMutability": "view",
      "type": "function"
    },
    {
      "inputs": [
        {
          "internalType": "uint256",
          "name": "",
          "type": "uint256"
        }
      ],
      "name": "tokenIdToUsername",
      "outputs": [
        {
          "internalType": "string",
          "name": "",
          "type": "string"
        }
      ],
      "stateMutability": "view",
      "type": "function"
    },
    {
      "inputs": [
        {
          "internalType": "uint256",
          "name": "tokenId",
          "type": "uint256"
        }
      ],
      "name": "tokenURI",
      "outputs": [
        {
          "internalType": "string",
          "name": "",
          "type": "string"
        }
      ],
      "stateMutability": "view",
      "type": "function"
    },
    {
      "inputs": [
        {
          "internalType": "address",
          "name": "from",
          "type": "address"
        },
        {
          "internalType": "address",
          "name": "to",
          "type": "address"
        },
        {
          "internalType": "uint256",
          "name": "tokenId",
          "type": "uint256"
        }
      ],
      "name": "transferFrom",
      "outputs": [],
      "stateMutability": "nonpayable",
      "type": "function"
    }
  ],
  "bytecode": "0x60806040523480156200001157600080fd5b506040518060400160405280600a81526020017f466c616d626f79616e74000000000000000000000000000000000000000000008152506040518060400160405280600381526020017f464c42000000000000000000000000000000000000000000000000000000000081525081600090816200008f919062000324565b508060019081620000a1919062000324565b5050506200040b565b600081519050919050565b7f4e487b7100000000000000000000000000000000000000000000000000000000600052604160045260246000fd5b7f4e487b7100000000000000000000000000000000000000000000000000000000600052602260045260246000fd5b600060028204905060018216806200012c57607f821691505b602082108103620001425762000141620000e4565b5b50919050565b60008190508160005260206000209050919050565b60006020601f8301049050919050565b600082821b905092915050565b600060088302620001ac7fffffffffffffffffffffffffffffffffffffffffffffffffffffffffffffffff826200016d565b620001b886836200016d565b95508019841693508086168417925050509392505050565b6000819050919050565b6000819050919050565b600062000205620001ff620001f984620001d0565b620001da565b620001d0565b9050919050565b6000819050919050565b6200022183620001e4565b6200023962000230826200020c565b8484546200017a565b825550505050565b600090565b6200025062000241565b6200025d81848462000216565b505050565b5b8181101562000285576200027960008262000246565b60018101905062000263565b5050565b601f821115620002d4576200029e8162000148565b620002a9846200015d565b81016020851015620002b9578190505b620002d1620002c8856200015d565b83018262000262565b50505b505050565b600082821c905092915050565b6000620002f960001984600802620002d9565b1980831691505092915050565b6000620003148383620002e6565b9150826002028217905092915050565b6200032f82620000aa565b67ffffffffffffffff8111156200034b576200034a620000b5565b5b62000357825462000113565b6200036482828562000289565b600060209050601f8311600181146200039c576000841562000387578287015190505b62000393858262000306565b86555062000403565b601f198416620003ac8662000148565b60005b82811015620003d657848901518255600182019150602085019450602081019050620003af565b86831015620003f65784890151620003f2601f891682620002e6565b8355505b6001600288020188555050505b505050505050565b614584806200041b6000396000f3fe608060405234801561001057600080fd5b50600436106100f55760003560e01c80636352211e11610097578063a22cb46511610066578063a22cb465146102aa578063b88d4fde146102c6578063c87b56dd146102e2578063e985e9c514610312576100f5565b80636352211e146101fc578063695850fb1461022c57806370a082311461025c57806395d89b411461028c576100f5565b8063095ea7b3116100d3578063095ea7b3146101785780631ff28db81461019457806323b872dd146101c457806342842e0e146101e0576100f5565b806301ffc9a7146100fa57806306fdde031461012a578063081812fc14610148575b600080fd5b610114600480360381019061010f91906119b4565b610342565b60405161012191906119fc565b60405180910390f35b610132610424565b60405161013f9190611aa7565b60405180910390f35b610162600480360381019061015d9190611aff565b6104b6565b60405161016f9190611b6d565b60405180910390f35b610192600480360381019061018d9190611bb4565b6104d2565b005b6101ae60048036038101906101a99190611aff565b6104e8565b6040516101bb9190611aa7565b60405180910390f35b6101de60048036038101906101d99190611bf4565b610588565b005b6101fa60048036038101906101f59190611bf4565b61068a565b005b61021660048036038101906102119190611aff565b6106aa565b6040516102239190611b6d565b60405180910390f35b61024660048036038101906102419190611cac565b6106bc565b6040516102539190611d08565b60405180910390f35b61027660048036038101906102719190611d23565b61070f565b6040516102839190611d08565b60405180910390f35b6102946107c9565b6040516102a19190611aa7565b60405180910390f35b6102c460048036038101906102bf9190611d7c565b61085b565b005b6102e060048036038101906102db9190611eec565b610871565b005b6102fc60048036038101906102f79190611aff565b61088e565b6040516103099190611aa7565b60405180910390f35b61032c60048036038101906103279190611f6f565b610997565b60405161033991906119fc565b60405180910390f35b60007f80ac58cd000000000000000000000000000000000000000000000000000000007bffffffffffffffffffffffffffffffffffffffffffffffffffffffff1916827bffffffffffffffffffffffffffffffffffffffffffffffffffffffff1916148061040d57507f5b5e139f000000000000000000000000000000000000000000000000000000007bffffffffffffffffffffffffffffffffffffffffffffffffffffffff1916827bffffffffffffffffffffffffffffffffffffffffffffffffffffffff1916145b8061041d575061041c82610a2b565b5b9050919050565b60606000805461043390611fde565b80601f016020809104026020016040519081016040528092919081815260200182805461045f90611fde565b80156104ac5780601f10610481576101008083540402835291602001916104ac565b820191906000526020600020905b81548152906001019060200180831161048f57829003601f168201915b5050505050905090565b60006104c182610a95565b506104cb82610b1d565b9050919050565b6104e482826104df610b5a565b610b62565b5050565b6007602052806000526040600020600091509050805461050790611fde565b80601f016020809104026020016040519081016040528092919081815260200182805461053390611fde565b80156105805780601f1061055557610100808354040283529160200191610580565b820191906000526020600020905b81548152906001019060200180831161056357829003601f168201915b505050505081565b600073ffffffffffffffffffffffffffffffffffffffff168273ffffffffffffffffffffffffffffffffffffffff16036105fa5760006040517f64a0ae920000000000000000000000000000000000000000000000000000000081526004016105f19190611b6d565b60405180910390fd5b600061060e8383610609610b5a565b610b74565b90508373ffffffffffffffffffffffffffffffffffffffff168173ffffffffffffffffffffffffffffffffffffffff1614610684578382826040517f64283d7b00000000000000000000000000000000000000000000000000000000815260040161067b9392919061200f565b60405180910390fd5b50505050565b6106a583838360405180602001604052806000815250610871565b505050565b60006106b582610a95565b9050919050565b600080600660008154809291906106d290612075565b9190505590506106e23382610d8e565b8383600760008481526020019081526020016000209182610704929190612274565b508091505092915050565b60008073ffffffffffffffffffffffffffffffffffffffff168273ffffffffffffffffffffffffffffffffffffffff16036107825760006040517f89c62b640000000000000000000000000000000000000000000000000000000081526004016107799190611b6d565b60405180910390fd5b600360008373ffffffffffffffffffffffffffffffffffffffff1673ffffffffffffffffffffffffffffffffffffffff168152602001908152602001600020549050919050565b6060600180546107d890611fde565b80601f016020809104026020016040519081016040528092919081815260200182805461080490611fde565b80156108515780601f1061082657610100808354040283529160200191610851565b820191906000526020600020905b81548152906001019060200180831161083457829003601f168201915b5050505050905090565b61086d610866610b5a565b8383610dac565b5050565b61087c848484610588565b61088884848484610f1b565b50505050565b6060600060076000848152602001908152602001600020905060006108b2846110d2565b6109448380546108c190611fde565b80601f01602080910402602001604051908101604052809291908181526020018280546108ed90611fde565b801561093a5780601f1061090f5761010080835404028352916020019161093a565b820191906000526020600020905b81548152906001019060200180831161091d57829003601f168201915b50505050506111a0565b604051602001610955929190612594565b604051602081830303815290604052905061096f816111f6565b60405160200161097f9190612646565b60405160208183030381529060405292505050919050565b6000600560008473ffffffffffffffffffffffffffffffffffffffff1673ffffffffffffffffffffffffffffffffffffffff16815260200190815260200160002060008373ffffffffffffffffffffffffffffffffffffffff1673ffffffffffffffffffffffffffffffffffffffff16815260200190815260200160002060009054906101000a900460ff16905092915050565b60007f01ffc9a7000000000000000000000000000000000000000000000000000000007bffffffffffffffffffffffffffffffffffffffffffffffffffffffff1916827bffffffffffffffffffffffffffffffffffffffffffffffffffffffff1916149050919050565b600080610aa183611359565b9050600073ffffffffffffffffffffffffffffffffffffffff168173ffffffffffffffffffffffffffffffffffffffff1603610b1457826040517f7e273289000000000000000000000000000000000000000000000000000000008152600401610b0b9190611d08565b60405180910390fd5b80915050919050565b60006004600083815260200190815260200160002060009054906101000a900473ffffffffffffffffffffffffffffffffffffffff169050919050565b600033905090565b610b6f8383836001611396565b505050565b600080610b8084611359565b9050600073ffffffffffffffffffffffffffffffffffffffff168373ffffffffffffffffffffffffffffffffffffffff1614610bc257610bc181848661155b565b5b600073ffffffffffffffffffffffffffffffffffffffff168173ffffffffffffffffffffffffffffffffffffffff1614610c5357610c04600085600080611396565b6001600360008373ffffffffffffffffffffffffffffffffffffffff1673ffffffffffffffffffffffffffffffffffffffff168152602001908152602001600020600082825403925050819055505b600073ffffffffffffffffffffffffffffffffffffffff168573ffffffffffffffffffffffffffffffffffffffff1614610cd6576001600360008773ffffffffffffffffffffffffffffffffffffffff1673ffffffffffffffffffffffffffffffffffffffff168152602001908152602001600020600082825401925050819055505b846002600086815260200190815260200160002060006101000a81548173ffffffffffffffffffffffffffffffffffffffff021916908373ffffffffffffffffffffffffffffffffffffffff160217905550838573ffffffffffffffffffffffffffffffffffffffff168273ffffffffffffffffffffffffffffffffffffffff167fddf252ad1be2c89b69c2b068fc378daa952ba7f163c4a11628f55a4df523b3ef60405160405180910390a4809150509392505050565b610da882826040518060200160405280600081525061161f565b5050565b600073ffffffffffffffffffffffffffffffffffffffff168273ffffffffffffffffffffffffffffffffffffffff1603610e1d57816040517f5b08ba18000000000000000000000000000000000000000000000000000000008152600401610e149190611b6d565b60405180910390fd5b80600560008573ffffffffffffffffffffffffffffffffffffffff1673ffffffffffffffffffffffffffffffffffffffff16815260200190815260200160002060008473ffffffffffffffffffffffffffffffffffffffff1673ffffffffffffffffffffffffffffffffffffffff16815260200190815260200160002060006101000a81548160ff0219169083151502179055508173ffffffffffffffffffffffffffffffffffffffff168373ffffffffffffffffffffffffffffffffffffffff167f17307eab39ab6107e8899845ad3d59bd9653f200f220920489ca2b5937696c3183604051610f0e91906119fc565b60405180910390a3505050565b60008373ffffffffffffffffffffffffffffffffffffffff163b11156110cc578273ffffffffffffffffffffffffffffffffffffffff1663150b7a02610f5f610b5a565b8685856040518563ffffffff1660e01b8152600401610f8194939291906126bd565b6020604051808303816000875af1925050508015610fbd57506040513d601f19601f82011682018060405250810190610fba919061271e565b60015b611041573d8060008114610fed576040519150601f19603f3d011682016040523d82523d6000602084013e610ff2565b606091505b50600081510361103957836040517f64a0ae920000000000000000000000000000000000000000000000000000000081526004016110309190611b6d565b60405180910390fd5b805181602001fd5b63150b7a0260e01b7bffffffffffffffffffffffffffffffffffffffffffffffffffffffff1916817bffffffffffffffffffffffffffffffffffffffffffffffffffffffff1916146110ca57836040517f64a0ae920000000000000000000000000000000000000000000000000000000081526004016110c19190611b6d565b60405180910390fd5b505b50505050565b6060600060016110e18461163b565b01905060008167ffffffffffffffff811115611100576110ff611dc1565b5b6040519080825280601f01601f1916602001820160405280156111325781602001600182028036833780820191505090505b509050600082602001820190505b600115611195578080600190039150507f3031323334353637383961626364656600000000000000000000000000000000600a86061a8153600a85816111895761118861274b565b5b04945060008503611140575b819350505050919050565b60606000826040516020016111b5919061434b565b60405160208183030381529060405290506111cf816111f6565b6040516020016111df919061441c565b604051602081830303815290604052915050919050565b6060600082510361121857604051806020016040528060008152509050611354565b600060405180606001604052806040815260200161450f6040913990506000600360028551611247919061443e565b6112519190614472565b600461125d91906144a3565b67ffffffffffffffff81111561127657611275611dc1565b5b6040519080825280601f01601f1916602001820160405280156112a85781602001600182028036833780820191505090505b509050600182016020820185865187015b80821015611314576003820191508151603f8160121c168501518453600184019350603f81600c1c168501518453600184019350603f8160061c168501518453600184019350603f81168501518453600184019350506112b9565b505060038651066001811461133057600281146113435761134b565b603d6001830353603d600283035361134b565b603d60018303535b50505080925050505b919050565b60006002600083815260200190815260200160002060009054906101000a900473ffffffffffffffffffffffffffffffffffffffff169050919050565b80806113cf5750600073ffffffffffffffffffffffffffffffffffffffff168273ffffffffffffffffffffffffffffffffffffffff1614155b156115035760006113df84610a95565b9050600073ffffffffffffffffffffffffffffffffffffffff168373ffffffffffffffffffffffffffffffffffffffff161415801561144a57508273ffffffffffffffffffffffffffffffffffffffff168173ffffffffffffffffffffffffffffffffffffffff1614155b801561145d575061145b8184610997565b155b1561149f57826040517fa9fbf51f0000000000000000000000000000000000000000000000000000000081526004016114969190611b6d565b60405180910390fd5b811561150157838573ffffffffffffffffffffffffffffffffffffffff168273ffffffffffffffffffffffffffffffffffffffff167f8c5be1e5ebec7d5bd14f71427d1e84f3dd0314c0f7b2291e5b200ac8c7c3b92560405160405180910390a45b505b836004600085815260200190815260200160002060006101000a81548173ffffffffffffffffffffffffffffffffffffffff021916908373ffffffffffffffffffffffffffffffffffffffff16021790555050505050565b61156683838361178e565b61161a57600073ffffffffffffffffffffffffffffffffffffffff168373ffffffffffffffffffffffffffffffffffffffff16036115db57806040517f7e2732890000000000000000000000000000000000000000000000000000000081526004016115d29190611d08565b60405180910390fd5b81816040517f177e802f0000000000000000000000000000000000000000000000000000000081526004016116119291906144e5565b60405180910390fd5b505050565b611629838361184f565b6116366000848484610f1b565b505050565b600080600090507a184f03e93ff9f4daa797ed6e38ed64bf6a1f0100000000000000008310611699577a184f03e93ff9f4daa797ed6e38ed64bf6a1f010000000000000000838161168f5761168e61274b565b5b0492506040810190505b6d04ee2d6d415b85acef810000000083106116d6576d04ee2d6d415b85acef810000000083816116cc576116cb61274b565b5b0492506020810190505b662386f26fc10000831061170557662386f26fc1000083816116fb576116fa61274b565b5b0492506010810190505b6305f5e100831061172e576305f5e10083816117245761172361274b565b5b0492506008810190505b61271083106117535761271083816117495761174861274b565b5b0492506004810190505b60648310611776576064838161176c5761176b61274b565b5b0492506002810190505b600a8310611785576001810190505b80915050919050565b60008073ffffffffffffffffffffffffffffffffffffffff168373ffffffffffffffffffffffffffffffffffffffff161415801561184657508273ffffffffffffffffffffffffffffffffffffffff168473ffffffffffffffffffffffffffffffffffffffff16148061180757506118068484610997565b5b8061184557508273ffffffffffffffffffffffffffffffffffffffff1661182d83610b1d565b73ffffffffffffffffffffffffffffffffffffffff16145b5b90509392505050565b600073ffffffffffffffffffffffffffffffffffffffff168273ffffffffffffffffffffffffffffffffffffffff16036118c15760006040517f64a0ae920000000000000000000000000000000000000000000000000000000081526004016118b89190611b6d565b60405180910390fd5b60006118cf83836000610b74565b9050600073ffffffffffffffffffffffffffffffffffffffff168173ffffffffffffffffffffffffffffffffffffffff16146119435760006040517f73c6ac6e00000000000000000000000000000000000000000000000000000000815260040161193a9190611b6d565b60405180910390fd5b505050565b6000604051905090565b600080fd5b600080fd5b60007fffffffff0000000000000000000000000000000000000000000000000000000082169050919050565b6119918161195c565b811461199c57600080fd5b50565b6000813590506119ae81611988565b92915050565b6000602082840312156119ca576119c9611952565b5b60006119d88482850161199f565b91505092915050565b60008115159050919050565b6119f6816119e1565b82525050565b6000602082019050611a1160008301846119ed565b92915050565b600081519050919050565b600082825260208201905092915050565b60005b83811015611a51578082015181840152602081019050611a36565b60008484015250505050565b6000601f19601f8301169050919050565b6000611a7982611a17565b611a838185611a22565b9350611a93818560208601611a33565b611a9c81611a5d565b840191505092915050565b60006020820190508181036000830152611ac18184611a6e565b905092915050565b6000819050919050565b611adc81611ac9565b8114611ae757600080fd5b50565b600081359050611af981611ad3565b92915050565b600060208284031215611b1557611b14611952565b5b6000611b2384828501611aea565b91505092915050565b600073ffffffffffffffffffffffffffffffffffffffff82169050919050565b6000611b5782611b2c565b9050919050565b611b6781611b4c565b82525050565b6000602082019050611b826000830184611b5e565b92915050565b611b9181611b4c565b8114611b9c57600080fd5b50565b600081359050611bae81611b88565b92915050565b60008060408385031215611bcb57611bca611952565b5b6000611bd985828601611b9f565b9250506020611bea85828601611aea565b9150509250929050565b600080600060608486031215611c0d57611c0c611952565b5b6000611c1b86828701611b9f565b9350506020611c2c86828701611b9f565b9250506040611c3d86828701611aea565b9150509250925092565b600080fd5b600080fd5b600080fd5b60008083601f840112611c6c57611c6b611c47565b5b8235905067ffffffffffffffff811115611c8957611c88611c4c565b5b602083019150836001820283011115611ca557611ca4611c51565b5b9250929050565b60008060208385031215611cc357611cc2611952565b5b600083013567ffffffffffffffff811115611ce157611ce0611957565b5b611ced85828601611c56565b92509250509250929050565b611d0281611ac9565b82525050565b6000602082019050611d1d6000830184611cf9565b92915050565b600060208284031215611d3957611d38611952565b5b6000611d4784828501611b9f565b91505092915050565b611d59816119e1565b8114611d6457600080fd5b50565b600081359050611d7681611d50565b92915050565b60008060408385031215611d9357611d92611952565b5b6000611da185828601611b9f565b9250506020611db285828601611d67565b9150509250929050565b600080fd5b7f4e487b7100000000000000000000000000000000000000000000000000000000600052604160045260246000fd5b611df982611a5d565b810181811067ffffffffffffffff82111715611e1857611e17611dc1565b5b80604052505050565b6000611e2b611948565b9050611e378282611df0565b919050565b600067ffffffffffffffff821115611e5757611e56611dc1565b5b611e6082611a5d565b9050602081019050919050565b82818337600083830152505050565b6000611e8f611e8a84611e3c565b611e21565b905082815260208101848484011115611eab57611eaa611dbc565b5b611eb6848285611e6d565b509392505050565b600082601f830112611ed357611ed2611c47565b5b8135611ee3848260208601611e7c565b91505092915050565b60008060008060808587031215611f0657611f05611952565b5b6000611f1487828801611b9f565b9450506020611f2587828801611b9f565b9350506040611f3687828801611aea565b925050606085013567ffffffffffffffff811115611f5757611f56611957565b5b611f6387828801611ebe565b91505092959194509250565b60008060408385031215611f8657611f85611952565b5b6000611f9485828601611b9f565b9250506020611fa585828601611b9f565b9150509250929050565b7f4e487b7100000000000000000000000000000000000000000000000000000000600052602260045260246000fd5b60006002820490506001821680611ff657607f821691505b60208210810361200957612008611faf565b5b50919050565b60006060820190506120246000830186611b5e565b6120316020830185611cf9565b61203e6040830184611b5e565b949350505050565b7f4e487b7100000000000000000000000000000000000000000000000000000000600052601160045260246000fd5b600061208082611ac9565b91507fffffffffffffffffffffffffffffffffffffffffffffffffffffffffffffffff82036120b2576120b1612046565b5b600182019050919050565b600082905092915050565b60008190508160005260206000209050919050565b60006020601f8301049050919050565b600082821b905092915050565b60006008830261212a7fffffffffffffffffffffffffffffffffffffffffffffffffffffffffffffffff826120ed565b61213486836120ed565b95508019841693508086168417925050509392505050565b6000819050919050565b600061217161216c61216784611ac9565b61214c565b611ac9565b9050919050565b6000819050919050565b61218b83612156565b61219f61219782612178565b8484546120fa565b825550505050565b600090565b6121b46121a7565b6121bf818484612182565b505050565b5b818110156121e3576121d86000826121ac565b6001810190506121c5565b5050565b601f821115612228576121f9816120c8565b612202846120dd565b81016020851015612211578190505b61222561221d856120dd565b8301826121c4565b50505b505050565b600082821c905092915050565b600061224b6000198460080261222d565b1980831691505092915050565b6000612264838361223a565b9150826002028217905092915050565b61227e83836120bd565b67ffffffffffffffff81111561229757612296611dc1565b5b6122a18254611fde565b6122ac8282856121e7565b6000601f8311600181146122db57600084156122c9578287013590505b6122d38582612258565b86555061233b565b601f1984166122e9866120c8565b60005b82811015612311578489013582556001820191506020850194506020810190506122ec565b8683101561232e578489013561232a601f89168261223a565b8355505b6001600288020188555050505b50505050505050565b600081905092915050565b7f7b00000000000000000000000000000000000000000000000000000000000000600082015250565b6000612385600183612344565b91506123908261234f565b600182019050919050565b7f226e616d65223a2022466c616d626f79616e6365207469636b65742023000000600082015250565b60006123d1601d83612344565b91506123dc8261239b565b601d82019050919050565b60006123f282611a17565b6123fc8185612344565b935061240c818560208601611a33565b80840191505092915050565b7f222c200000000000000000000000000000000000000000000000000000000000600082015250565b600061244e600383612344565b915061245982612418565b600382019050919050565b7f226465736372697074696f6e223a20225468697320666c616d626f79616e636560008201527f207469636b6574206973206120636f6f6c20737667206372656174656420667260208201527f6f6d206f6e2d636861696e206d657461646174617321222c2000000000000000604082015250565b60006124e6605983612344565b91506124f182612464565b605982019050919050565b7f22696d616765223a202200000000000000000000000000000000000000000000600082015250565b6000612532600a83612344565b915061253d826124fc565b600a82019050919050565b7f22207d0000000000000000000000000000000000000000000000000000000000600082015250565b600061257e600383612344565b915061258982612548565b600382019050919050565b600061259f82612378565b91506125aa826123c4565b91506125b682856123e7565b91506125c182612441565b91506125cc826124d9565b91506125d782612525565b91506125e382846123e7565b91506125ee82612571565b91508190509392505050565b7f646174613a6170706c69636174696f6e2f6a736f6e3b6261736536342c000000600082015250565b6000612630601d83612344565b915061263b826125fa565b601d82019050919050565b600061265182612623565b915061265d82846123e7565b915081905092915050565b600081519050919050565b600082825260208201905092915050565b600061268f82612668565b6126998185612673565b93506126a9818560208601611a33565b6126b281611a5d565b840191505092915050565b60006080820190506126d26000830187611b5e565b6126df6020830186611b5e565b6126ec6040830185611cf9565b81810360608301526126fe8184612684565b905095945050505050565b60008151905061271881611988565b92915050565b60006020828403121561273457612733611952565b5b600061274284828501612709565b91505092915050565b7f4e487b7100000000000000000000000000000000000000000000000000000000600052601260045260246000fd5b7f3c7376672069643d2265365563757a4969393433312220786d6c6e733d22687460008201527f74703a2f2f7777772e77332e6f72672f323030302f7376672220786d6c6e733a60208201527f786c696e6b3d22687474703a2f2f7777772e77332e6f72672f313939392f786c60408201527f696e6b222076696577426f783d2230203020333030203330302220736861706560608201527f2d72656e646572696e673d2267656f6d6574726963507265636973696f6e222060808201527f746578742d72656e646572696e673d2267656f6d65747269635072656369736960a08201527f6f6e222077696474683d2233303022206865696768743d22333030223e00000060c082015250565b600061289460dd83612344565b915061289f8261277a565b60dd82019050919050565b7f3c726563742077696474683d223130302522206865696768743d22313030252260008201527f2066696c6c3d22626c61636b22202f3e3c646566733e3c6c696e65617247726160208201527f6469656e742069643d2265365563757a4969393433322d66696c6c222078313d60408201527f2230222079313d22302e35222078323d2231222079323d22302e35222073707260608201527f6561644d6574686f643d2270616422206772616469656e74556e6974733d226f60808201527f626a656374426f756e64696e67426f7822206772616469656e745472616e736660a08201527f6f726d3d227472616e736c6174652830203029223e3c73746f702069643d226560c08201527f365563757a4969393433322d66696c6c2d3022206f66667365743d223025222060e08201527f73746f702d636f6c6f723d22726762612831302c39302c3139332c302e3836296101008201527f222f3e3c73746f702069643d2265365563757a4969393433322d66696c6c2d316101208201527f22206f66667365743d2231303025222073746f702d636f6c6f723d22726762616101408201527f28322c3138342c3230352c302e383629222f3e3c2f6c696e65617247726164696101608201527f656e743e3c6c696e6561724772616469656e742069643d2265365563757a49696101808201527f393433332d66696c6c222078313d2230222079313d2230222078323d223122206101a08201527f79323d223122207370726561644d6574686f643d2270616422206772616469656101c08201527f6e74556e6974733d226f626a656374426f756e64696e67426f782220677261646101e08201527f69656e745472616e73666f726d3d227472616e736c6174652830203029223e3c6102008201527f73746f702069643d2265365563757a4969393433332d66696c6c2d3022206f666102208201527f667365743d223025222073746f702d636f6c6f723d2223306135616331222f3e6102408201527f3c73746f702069643d2265365563757a4969393433332d66696c6c2d3122206f6102608201527f66667365743d2231303025222073746f702d636f6c6f723d22233032623863646102808201527f222f3e3c2f6c696e6561724772616469656e743e3c6c696e65617247726164696102a08201527f656e742069643d2265365563757a4969393433332d7374726f6b65222078313d6102c08201527f2230222079313d22302e35222078323d2231222079323d22302e3522207370726102e08201527f6561644d6574686f643d2270616422206772616469656e74556e6974733d226f6103008201527f626a656374426f756e64696e67426f7822206772616469656e745472616e73666103208201527f6f726d3d227472616e736c6174652830203029223e3c73746f702069643d22656103408201527f365563757a4969393433332d7374726f6b652d3022206f66667365743d2230256103608201527f222073746f702d636f6c6f723d2223306135616331222f3e3c73746f702069646103808201527f3d2265365563757a4969393433332d7374726f6b652d3122206f66667365743d6103a08201527f2231303025222073746f702d636f6c6f723d2223303262386364222f3e3c2f6c6103c08201527f696e6561724772616469656e743e3c6c696e6561724772616469656e742069646103e08201527f3d2265365563757a4969393433342d66696c6c222078313d2230222079313d226104008201527f30222078323d2231222079323d223122207370726561644d6574686f643d22706104208201527f616422206772616469656e74556e6974733d226f626a656374426f756e64696e6104408201527f67426f7822206772616469656e745472616e73666f726d3d227472616e736c616104608201527f74652830203029223e3c73746f702069643d2265365563757a4969393433342d6104808201527f66696c6c2d3022206f66667365743d223025222073746f702d636f6c6f723d226104a08201527f23306135616331222f3e000000000000000000000000000000000000000000006104c082015250565b6000612ea46104ca83612344565b9150612eaf826128aa565b6104ca82019050919050565b7f3c73746f702069643d2265365563757a4969393433342d66696c6c2d3122206f60008201527f66667365743d2231303025222073746f702d636f6c6f723d222330326238636460208201527f222f3e3c2f6c696e6561724772616469656e743e3c6c696e656172477261646960408201527f656e742069643d2265365563757a4969393433342d7374726f6b65222078313d60608201527f2230222079313d22302e35222078323d2231222079323d22302e35222073707260808201527f6561644d6574686f643d2270616422206772616469656e74556e6974733d226f60a08201527f626a656374426f756e64696e67426f7822206772616469656e745472616e736660c08201527f6f726d3d227472616e736c6174652830203029223e3c73746f702069643d226560e08201527f365563757a4969393433342d7374726f6b652d3022206f66667365743d2230256101008201527f222073746f702d636f6c6f723d2223306135616331222f3e3c73746f702069646101208201527f3d2265365563757a4969393433342d7374726f6b652d3122206f66667365743d6101408201527f2231303025222073746f702d636f6c6f723d2223303262386364222f3e3c2f6c6101608201527f696e6561724772616469656e743e3c6c696e6561724772616469656e742069646101808201527f3d2265365563757a4969393433352d66696c6c222078313d2230222079313d226101a08201527f30222078323d2231222079323d223122207370726561644d6574686f643d22706101c08201527f616422206772616469656e74556e6974733d226f626a656374426f756e64696e6101e08201527f67426f7822206772616469656e745472616e73666f726d3d227472616e736c616102008201527f74652830203029223e3c73746f702069643d2265365563757a4969393433352d6102208201527f66696c6c2d3022206f66667365743d223025222073746f702d636f6c6f723d226102408201527f23306135616331222f3e3c73746f702069643d2265365563757a4969393433356102608201527f2d66696c6c2d3122206f66667365743d2231303025222073746f702d636f6c6f6102808201527f723d2223303262386364222f3e3c2f6c696e6561724772616469656e743e3c6c6102a08201527f696e6561724772616469656e742069643d2265365563757a4969393433352d736102c08201527f74726f6b65222078313d2230222079313d22302e35222078323d2231222079326102e08201527f3d22302e3522207370726561644d6574686f643d2270616422206772616469656103008201527f6e74556e6974733d226f626a656374426f756e64696e67426f782220677261646103208201527f69656e745472616e73666f726d3d227472616e736c6174652830203029223e3c6103408201527f73746f702069643d2265365563757a4969393433352d7374726f6b652d3022206103608201527f6f66667365743d223025222073746f702d636f6c6f723d2223306135616331226103808201527f2f3e3c73746f702069643d2265365563757a4969393433352d7374726f6b652d6103a08201527f3122206f66667365743d2231303025222073746f702d636f6c6f723d222330326103c08201527f62386364222f3e3c2f6c696e6561724772616469656e743e3c6c696e656172476103e08201527f72616469656e742069643d2265365563757a4969393433362d66696c6c2220786104008201527f313d2230222079313d2230222078323d2231222079323d2231222073707265616104208201527f644d6574686f643d2270616422206772616469656e74556e6974733d226f626a6104408201527f656374426f756e64696e67426f7822206772616469656e745472616e73666f726104608201527f6d3d227472616e736c6174652830203029223e3c73746f702069643d226536556104808201527f63757a4969393433362d66696c6c2d3022206f66667365743d223025222073746104a08201527f6f702d636f6c6f723d2223306135616331222f3e3c73746f702069643d2265366104c08201527f5563757a4969393433362d66696c6c2d3122206f66667365743d2231303025226104e08201527f2073746f702d636f6c6f723d2223303262386364222f3e3c2f6c696e656172476105008201527f72616469656e743e3c6c696e6561724772616469656e742069643d22653655636105208201527f757a4969393433362d7374726f6b65222078313d2230222079313d22302e35226105408201527f2078323d2231222079323d22302e3522207370726561644d6574686f643d22706105608201527f616422206772616469656e74556e6974733d226f626a656374426f756e64696e6105808201527f67426f7822206772616469656e745472616e73666f726d3d227472616e736c616105a08201527f74652830203029223e3c73746f702069643d2265365563757a4969393433362d6105c08201527f7374726f6b652d3022206f66667365743d223025222073746f702d636f6c6f726105e08201527f3d2223306135616331222f3e3c73746f702069643d2265365563757a496939346106008201527f33362d7374726f6b652d3122206f66667365743d2231303025222073746f702d6106208201527f636f6c6f723d2223303262386364222f3e3c2f6c696e6561724772616469656e6106408201527f743e3c6c696e6561724772616469656e742069643d2265365563757a496939346106608201527f33372d66696c6c222078313d2230222079313d22302e35222078323d223122206106808201527f79323d22302e3522207370726561644d6574686f643d227061642220677261646106a08201527f69656e74556e6974733d226f626a656374426f756e64696e67426f78222067726106c08201527f616469656e745472616e73666f726d3d227472616e736c6174652830203029226106e08201527f3e3c73746f702069643d2265365563757a4969393433372d66696c6c2d3022206107008201527f6f66667365743d223025222073746f702d636f6c6f723d2223306135616331226107208201527f2f3e3c73746f702069643d2265365563757a4969393433372d66696c6c2d31226107408201527f206f66667365743d2231303025222073746f702d636f6c6f723d2223303262386107608201527f6364222f3e00000000000000000000000000000000000000000000000000000061078082015250565b600061380f61078583612344565b915061381a82612ebb565b61078582019050919050565b7f3c2f6c696e6561724772616469656e743e3c2f646566733e3c7061746820643d60008201527f224d34322e3035343732352c304c38392e3334313631392c35372e313538373860208201527f326c31332e3538353931362d33352e36303434374c3135302c39302e3838393360408201527f33326c36372e3730353130332c372e3032373139384c3330302c3231372e333760608201527f383839377638322e363231313031682d36342e3936313134324c3139322e393560808201527f3337352c3133332e3539393038682d34322e39353337354c3131352e3537363460a08201527f39312c38302e3131343239354c38392e3334313631392c3131312e393730393260c08201527f364c302c32362e3233393131762d32362e3233393131324c34322e303534373260e08201527f352c305a22207472616e73666f726d3d227472616e736c617465283020302e306101008201527f303030303229222066696c6c3d2275726c282365365563757a4969393433322d6101208201527f66696c6c2922207374726f6b652d77696474683d22302e36222f3e3c6c696e656101408201527f2078313d222d392e333736383035222079313d222d35332e37373837333922206101608201527f78323d22392e333736383035222079323d2235332e37373837333922207472616101808201527f6e73666f726d3d226d6174726978282e3933363736322d2e33343939363820306101a08201527f2e33343939363820302e393336373632203137302e343636393034203233352e6101c08201527f37303431313929222066696c6c3d2275726c282365365563757a4969393433336101e08201527f2d66696c6c2922207374726f6b653d2275726c282365365563757a49693934336102008201527f332d7374726f6b652922207374726f6b652d77696474683d2233222f3e3c6c696102208201527f6e652078313d222d392e333736383035222079313d222d35332e3737383733396102408201527f222078323d22392e333736383035222079323d2235332e3737383733392220746102608201527f72616e73666f726d3d226d6174726978282e3833313638362d2e3239343539376102808201527f20302e31343939323820302e343233323635203137372e3937303032352035396102a08201527f2e35333236323329222066696c6c3d2275726c282365365563757a49693934336102c08201527f342d66696c6c2922207374726f6b653d2275726c282365365563757a496939346102e08201527f33342d7374726f6b652922207374726f6b652d77696474683d2233222f3e3c6c6103008201527f696e652078313d222d392e333736383035222079313d222d35332e37373837336103208201527f39222078323d22392e333736383035222079323d2235332e37373837333922206103408201527f7472616e73666f726d3d226d6174726978282e3836363137372d2e34393937336103608201527f3720302e33373733323420302e363534303034203235382e34363639303420396103808201527f342e37303431313929222066696c6c3d2275726c282365365563757a496939346103a08201527f33352d66696c6c2922207374726f6b653d2275726c282365365563757a4969396103c08201527f3433352d7374726f6b652922207374726f6b652d77696474683d2233222f3e3c6103e08201527f6c696e652078313d222d392e333736383035222079313d222d35332e373738376104008201527f3339222078323d22392e333736383035222079323d2235332e373738373339226104208201527f207472616e73666f726d3d226d6174726978282e3836363137372d2e343939376104408201527f333720302e32373535363220302e3437373632322032372e39323634323820376104608201527f342e383436393829222066696c6c3d2275726c282365365563757a49693934336104808201527f362d66696c6c2922207374726f6b653d2275726c282365365563757a496939346104a08201527f33362d7374726f6b652922207374726f6b652d77696474683d2233222f3e3c746104c08201527f6578742064783d2230222064793d22302220666f6e742d66616d696c793d22266104e08201527f71756f743b65365563757a4969393433313a3a3a526f626f746f2671756f743b6105008201527f2220666f6e742d73697a653d2231352220666f6e742d7765696768743d2234306105208201527f3022207472616e73666f726d3d227472616e736c6174652832312e32323930336105408201527f35203232342e30393132323929222066696c6c3d2275726c282365365563757a6105608201527f4969393433372d66696c6c2922207374726f6b652d77696474683d2230223e3c6105808201527f747370616e20793d22302220666f6e742d7765696768743d22343030222073746105a08201527f726f6b652d77696474683d2230223e3c215b43444154415b00000000000000006105c082015250565b6000613f586105d883612344565b9150613f6382613826565b6105d882019050919050565b7f464c414d424f59414e4345000000000000000000000000000000000000000000600082015250565b6000613fa5600b83612344565b9150613fb082613f6f565b600b82019050919050565b7f5d5d3e3c2f747370616e3e3c2f746578743e3c746578742064783d223022206460008201527f793d22302220666f6e742d66616d696c793d222671756f743b65365563757a4960208201527f69393433313a3a3a526f626f746f2671756f743b2220666f6e742d73697a653d60408201527f2231352220666f6e742d7765696768743d2234303022207472616e73666f726d60608201527f3d227472616e736c6174652832312e323239303335203230312e30393132323960808201527f29222066696c6c3d222366396639666122207374726f6b652d77696474683d2260a08201527f30223e3c747370616e20793d22302220666f6e742d7765696768743d2234303060c08201527f22207374726f6b652d77696474683d2230223e3c215b43444154415b0000000060e082015250565b60006140fb60fc83612344565b915061410682613fbb565b60fc82019050919050565b7f5445414d20000000000000000000000000000000000000000000000000000000600082015250565b6000614147600583612344565b915061415282614111565b600582019050919050565b7f5d5d3e3c2f747370616e3e3c2f746578743e3c746578742064783d223022206460008201527f793d22302220666f6e742d66616d696c793d222671756f743b65365563757a4960208201527f69393433313a3a3a526f626f746f2671756f743b2220666f6e742d73697a653d60408201527f2231352220666f6e742d7765696768743d2234303022207472616e73666f726d60608201527f3d227472616e736c6174652832312e323239303335203237352e30393132323960808201527f29222066696c6c3d222366396639666122207374726f6b652d77696474683d2260a08201527f30223e3c747370616e20793d22302220666f6e742d7765696768743d2234303060c08201527f22207374726f6b652d77696474683d2230223e3c215b43444154415b0000000060e082015250565b600061429d60fc83612344565b91506142a88261415d565b60fc82019050919050565b7f5d5d3e3c2f747370616e3e3c2f746578743e2000000000000000000000000000600082015250565b60006142e9601383612344565b91506142f4826142b3565b601382019050919050565b7f3c2f7376673e0000000000000000000000000000000000000000000000000000600082015250565b6000614335600683612344565b9150614340826142ff565b600682019050919050565b600061435682612887565b915061436182612e96565b915061436c82613801565b915061437782613f4a565b915061438282613f98565b915061438d826140ee565b91506143988261413a565b91506143a382614290565b91506143af82846123e7565b91506143ba826142dc565b91506143c582614328565b915081905092915050565b7f646174613a696d6167652f7376672b786d6c3b6261736536342c000000000000600082015250565b6000614406601a83612344565b9150614411826143d0565b601a82019050919050565b6000614427826143f9565b915061443382846123e7565b915081905092915050565b600061444982611ac9565b915061445483611ac9565b925082820190508082111561446c5761446b612046565b5b92915050565b600061447d82611ac9565b915061448883611ac9565b9250826144985761449761274b565b5b828204905092915050565b60006144ae82611ac9565b91506144b983611ac9565b92508282026144c781611ac9565b915082820484148315176144de576144dd612046565b5b5092915050565b60006040820190506144fa6000830185611b5e565b6145076020830184611cf9565b939250505056fe4142434445464748494a4b4c4d4e4f505152535455565758595a6162636465666768696a6b6c6d6e6f707172737475767778797a303132333435363738392b2fa264697066735822122057f327019047a9b2898e69ac9a34ce3c8455ca40aa46c21cb1343ee362a8cd5a64736f6c63430008140033",
  "linkReferences": {},
  "deployedLinkReferences": {}
}